{
  "address": "0x3DB8adb7d0f2A73a6600D6010a72CC491e800b50",
  "abi": [
    {
      "inputs": [
        {
          "internalType": "uint64",
          "name": "_subscriptionId",
          "type": "uint64"
        }
      ],
      "stateMutability": "nonpayable",
      "type": "constructor"
    },
    {
      "inputs": [
        {
          "internalType": "address",
          "name": "have",
          "type": "address"
        },
        {
          "internalType": "address",
          "name": "want",
          "type": "address"
        }
      ],
      "name": "OnlyCoordinatorCanFulfill",
      "type": "error"
    },
    {
      "anonymous": false,
      "inputs": [
        {
          "indexed": true,
          "internalType": "address",
          "name": "owner",
          "type": "address"
        },
        {
          "indexed": true,
          "internalType": "address",
          "name": "approved",
          "type": "address"
        },
        {
          "indexed": true,
          "internalType": "uint256",
          "name": "tokenId",
          "type": "uint256"
        }
      ],
      "name": "Approval",
      "type": "event"
    },
    {
      "anonymous": false,
      "inputs": [
        {
          "indexed": true,
          "internalType": "address",
          "name": "owner",
          "type": "address"
        },
        {
          "indexed": true,
          "internalType": "address",
          "name": "operator",
          "type": "address"
        },
        {
          "indexed": false,
          "internalType": "bool",
          "name": "approved",
          "type": "bool"
        }
      ],
      "name": "ApprovalForAll",
      "type": "event"
    },
    {
      "anonymous": false,
      "inputs": [
        {
          "indexed": true,
          "internalType": "address",
          "name": "previousOwner",
          "type": "address"
        },
        {
          "indexed": true,
          "internalType": "address",
          "name": "newOwner",
          "type": "address"
        }
      ],
      "name": "OwnershipTransferred",
      "type": "event"
    },
    {
      "anonymous": false,
      "inputs": [
        {
          "indexed": false,
          "internalType": "address",
          "name": "account",
          "type": "address"
        }
      ],
      "name": "Paused",
      "type": "event"
    },
    {
      "anonymous": false,
      "inputs": [
        {
          "indexed": true,
          "internalType": "address",
          "name": "from",
          "type": "address"
        },
        {
          "indexed": true,
          "internalType": "address",
          "name": "to",
          "type": "address"
        },
        {
          "indexed": true,
          "internalType": "uint256",
          "name": "tokenId",
          "type": "uint256"
        }
      ],
      "name": "Transfer",
      "type": "event"
    },
    {
      "anonymous": false,
      "inputs": [
        {
          "indexed": false,
          "internalType": "address",
          "name": "account",
          "type": "address"
        }
      ],
      "name": "Unpaused",
      "type": "event"
    },
    {
      "inputs": [
        {
          "internalType": "uint256",
          "name": "",
          "type": "uint256"
        }
      ],
      "name": "animalsInfo",
      "outputs": [
        {
          "internalType": "uint256",
          "name": "tokenId",
          "type": "uint256"
        },
        {
          "internalType": "uint8",
          "name": "animalType",
          "type": "uint8"
        },
        {
          "internalType": "uint8",
          "name": "animalAgeStage",
          "type": "uint8"
        },
        {
          "internalType": "uint8",
          "name": "gender",
          "type": "uint8"
        },
        {
          "internalType": "uint8",
          "name": "attack",
          "type": "uint8"
        },
        {
          "internalType": "uint8",
          "name": "defense",
          "type": "uint8"
        },
        {
          "internalType": "uint8",
          "name": "vitality",
          "type": "uint8"
        },
        {
          "internalType": "uint256",
          "name": "experience",
          "type": "uint256"
        }
      ],
      "stateMutability": "view",
      "type": "function"
    },
    {
      "inputs": [
        {
          "internalType": "address",
          "name": "to",
          "type": "address"
        },
        {
          "internalType": "uint256",
          "name": "tokenId",
          "type": "uint256"
        }
      ],
      "name": "approve",
      "outputs": [],
      "stateMutability": "nonpayable",
      "type": "function"
    },
    {
      "inputs": [
        {
          "internalType": "address",
          "name": "owner",
          "type": "address"
        }
      ],
      "name": "balanceOf",
      "outputs": [
        {
          "internalType": "uint256",
          "name": "",
          "type": "uint256"
        }
      ],
      "stateMutability": "view",
      "type": "function"
    },
    {
      "inputs": [
        {
          "internalType": "uint256",
          "name": "tokenId",
          "type": "uint256"
        }
      ],
      "name": "burn",
      "outputs": [],
      "stateMutability": "nonpayable",
      "type": "function"
    },
    {
      "inputs": [
        {
          "internalType": "uint256",
          "name": "tokenId",
          "type": "uint256"
        }
      ],
      "name": "getApproved",
      "outputs": [
        {
          "internalType": "address",
          "name": "",
          "type": "address"
        }
      ],
      "stateMutability": "view",
      "type": "function"
    },
    {
      "inputs": [
        {
          "internalType": "address",
          "name": "owner",
          "type": "address"
        },
        {
          "internalType": "address",
          "name": "operator",
          "type": "address"
        }
      ],
      "name": "isApprovedForAll",
      "outputs": [
        {
          "internalType": "bool",
          "name": "",
          "type": "bool"
        }
      ],
      "stateMutability": "view",
      "type": "function"
    },
    {
      "inputs": [],
      "name": "mintAndPay",
      "outputs": [
        {
          "internalType": "uint256",
          "name": "",
          "type": "uint256"
        }
      ],
      "stateMutability": "payable",
      "type": "function"
    },
    {
      "inputs": [],
      "name": "name",
      "outputs": [
        {
          "internalType": "string",
          "name": "",
          "type": "string"
        }
      ],
      "stateMutability": "view",
      "type": "function"
    },
    {
      "inputs": [],
      "name": "owner",
      "outputs": [
        {
          "internalType": "address",
          "name": "",
          "type": "address"
        }
      ],
      "stateMutability": "view",
      "type": "function"
    },
    {
      "inputs": [
        {
          "internalType": "uint256",
          "name": "tokenId",
          "type": "uint256"
        }
      ],
      "name": "ownerOf",
      "outputs": [
        {
          "internalType": "address",
          "name": "",
          "type": "address"
        }
      ],
      "stateMutability": "view",
      "type": "function"
    },
    {
      "inputs": [],
      "name": "pause",
      "outputs": [],
      "stateMutability": "nonpayable",
      "type": "function"
    },
    {
      "inputs": [],
      "name": "paused",
      "outputs": [
        {
          "internalType": "bool",
          "name": "",
          "type": "bool"
        }
      ],
      "stateMutability": "view",
      "type": "function"
    },
    {
      "inputs": [
        {
          "internalType": "uint256",
          "name": "requestId",
          "type": "uint256"
        },
        {
          "internalType": "uint256[]",
          "name": "randomWords",
          "type": "uint256[]"
        }
      ],
      "name": "rawFulfillRandomWords",
      "outputs": [],
      "stateMutability": "nonpayable",
      "type": "function"
    },
    {
      "inputs": [],
      "name": "renounceOwnership",
      "outputs": [],
      "stateMutability": "nonpayable",
      "type": "function"
    },
    {
      "inputs": [
        {
          "internalType": "address",
          "name": "to",
          "type": "address"
        },
        {
          "internalType": "string",
          "name": "uri",
          "type": "string"
        }
      ],
      "name": "safeMint",
      "outputs": [],
      "stateMutability": "nonpayable",
      "type": "function"
    },
    {
      "inputs": [
        {
          "internalType": "address",
          "name": "from",
          "type": "address"
        },
        {
          "internalType": "address",
          "name": "to",
          "type": "address"
        },
        {
          "internalType": "uint256",
          "name": "tokenId",
          "type": "uint256"
        }
      ],
      "name": "safeTransferFrom",
      "outputs": [],
      "stateMutability": "nonpayable",
      "type": "function"
    },
    {
      "inputs": [
        {
          "internalType": "address",
          "name": "from",
          "type": "address"
        },
        {
          "internalType": "address",
          "name": "to",
          "type": "address"
        },
        {
          "internalType": "uint256",
          "name": "tokenId",
          "type": "uint256"
        },
        {
          "internalType": "bytes",
          "name": "_data",
          "type": "bytes"
        }
      ],
      "name": "safeTransferFrom",
      "outputs": [],
      "stateMutability": "nonpayable",
      "type": "function"
    },
    {
      "inputs": [
        {
          "internalType": "address",
          "name": "operator",
          "type": "address"
        },
        {
          "internalType": "bool",
          "name": "approved",
          "type": "bool"
        }
      ],
      "name": "setApprovalForAll",
      "outputs": [],
      "stateMutability": "nonpayable",
      "type": "function"
    },
    {
      "inputs": [
        {
          "internalType": "bytes4",
          "name": "interfaceId",
          "type": "bytes4"
        }
      ],
      "name": "supportsInterface",
      "outputs": [
        {
          "internalType": "bool",
          "name": "",
          "type": "bool"
        }
      ],
      "stateMutability": "view",
      "type": "function"
    },
    {
      "inputs": [],
      "name": "symbol",
      "outputs": [
        {
          "internalType": "string",
          "name": "",
          "type": "string"
        }
      ],
      "stateMutability": "view",
      "type": "function"
    },
    {
      "inputs": [
        {
          "internalType": "uint256",
          "name": "index",
          "type": "uint256"
        }
      ],
      "name": "tokenByIndex",
      "outputs": [
        {
          "internalType": "uint256",
          "name": "",
          "type": "uint256"
        }
      ],
      "stateMutability": "view",
      "type": "function"
    },
    {
      "inputs": [
        {
          "internalType": "address",
          "name": "owner",
          "type": "address"
        },
        {
          "internalType": "uint256",
          "name": "index",
          "type": "uint256"
        }
      ],
      "name": "tokenOfOwnerByIndex",
      "outputs": [
        {
          "internalType": "uint256",
          "name": "",
          "type": "uint256"
        }
      ],
      "stateMutability": "view",
      "type": "function"
    },
    {
      "inputs": [
        {
          "internalType": "uint256",
          "name": "tokenId",
          "type": "uint256"
        }
      ],
      "name": "tokenURI",
      "outputs": [
        {
          "internalType": "string",
          "name": "",
          "type": "string"
        }
      ],
      "stateMutability": "view",
      "type": "function"
    },
    {
      "inputs": [],
      "name": "totalSupply",
      "outputs": [
        {
          "internalType": "uint256",
          "name": "",
          "type": "uint256"
        }
      ],
      "stateMutability": "view",
      "type": "function"
    },
    {
      "inputs": [
        {
          "internalType": "address",
          "name": "from",
          "type": "address"
        },
        {
          "internalType": "address",
          "name": "to",
          "type": "address"
        },
        {
          "internalType": "uint256",
          "name": "tokenId",
          "type": "uint256"
        }
      ],
      "name": "transferFrom",
      "outputs": [],
      "stateMutability": "nonpayable",
      "type": "function"
    },
    {
      "inputs": [
        {
          "internalType": "address",
          "name": "newOwner",
          "type": "address"
        }
      ],
      "name": "transferOwnership",
      "outputs": [],
      "stateMutability": "nonpayable",
      "type": "function"
    },
    {
      "inputs": [],
      "name": "unpause",
      "outputs": [],
      "stateMutability": "nonpayable",
      "type": "function"
    }
  ],
  "transactionHash": "0x2279b8e78b8d95a4390931cb8c5382a2d35152b23336951b792ec528810f6ed0",
  "args": [
    323
  ],
  "numDeployments": 1,
  "solcInputHash": "82b9beb6c9e7879d4a4158c62deee086",
  "bytecode": "0x60a0604052601180546001600160a01b0319908116736a2aad07396b36fe02a22b33cf443582f682c82f17909155601280549091167384b9b910527ad5c03a9ca831909e21e236ea7b061790557fd4bb89654db74673a187bd804519e65e3f71a52bc55f11da7601a13dcf5053146013556014805466010003000186a06001600160501b03199091161790553480156200009857600080fd5b5060405162002bb238038062002bb2833981016040819052620000bb91620002ef565b601154604080518082018252600e81526d4761636861706f6e45524337323160901b602080830191825283518085019094526005845264434143484160d81b9084015281516001600160a01b03909416939192916200011d9160009162000249565b5080516200013390600190602084019062000249565b5050600b805460ff19169055506200014b33620001ef565b60601b6001600160601b0319166080908152601154600f8054601254601080546001600160a01b039283166001600160e01b031990911617600160a01b6001600160401b0389160217905560076001600160b01b03199092169316620100000261ffff191692909217919091179055604080519182019052605580825262002b5d60208301398051620001e791600e9160209091019062000249565b50506200035c565b600b80546001600160a01b03838116610100818102610100600160a81b031985161790945560405193909204169182907f8be0079c531659141344cd1fd0a4f28419497f9722a3daafe3b4186f6b6457e090600090a35050565b82805462000257906200031f565b90600052602060002090601f0160209004810192826200027b5760008555620002c6565b82601f106200029657805160ff1916838001178555620002c6565b82800160010185558215620002c6579182015b82811115620002c6578251825591602001919060010190620002a9565b50620002d4929150620002d8565b5090565b5b80821115620002d45760008155600101620002d9565b60006020828403121562000301578081fd5b81516001600160401b038116811462000318578182fd5b9392505050565b600181811c908216806200033457607f821691505b602082108114156200035657634e487b7160e01b600052602260045260246000fd5b50919050565b60805160601c6127db62000382600039600081816107fe015261084001526127db6000f3fe60806040526004361061019c5760003560e01c806361592b43116100ec57806395d89b411161008a578063c87b56dd11610064578063c87b56dd14610504578063d204c45e14610524578063e985e9c514610544578063f2fde38b1461058d57600080fd5b806395d89b41146104af578063a22cb465146104c4578063b88d4fde146104e457600080fd5b8063715018a6116100c6578063715018a61461045a5780638456cb591461046f5780638da5cb5b146104845780638ffdbd20146104a757600080fd5b806361592b431461035e5780636352211e1461041a57806370a082311461043a57600080fd5b806323b872dd1161015957806342842e0e1161013357806342842e0e146102e657806342966c68146103065780634f6ccce7146103265780635c975abb1461034657600080fd5b806323b872dd146102915780632f745c59146102b15780633f4ba83a146102d157600080fd5b806301ffc9a7146101a157806306fdde03146101d6578063081812fc146101f8578063095ea7b31461023057806318160ddd146102525780631fe543e314610271575b600080fd5b3480156101ad57600080fd5b506101c16101bc3660046122ce565b6105ad565b60405190151581526020015b60405180910390f35b3480156101e257600080fd5b506101eb6105be565b6040516101cd9190612558565b34801561020457600080fd5b50610218610213366004612306565b610650565b6040516001600160a01b0390911681526020016101cd565b34801561023c57600080fd5b5061025061024b3660046122a5565b6106dd565b005b34801561025e57600080fd5b506008545b6040519081526020016101cd565b34801561027d57600080fd5b5061025061028c366004612336565b6107f3565b34801561029d57600080fd5b506102506102ac366004612158565b61087b565b3480156102bd57600080fd5b506102636102cc3660046122a5565b6108ad565b3480156102dd57600080fd5b50610250610943565b3480156102f257600080fd5b50610250610301366004612158565b61097d565b34801561031257600080fd5b50610250610321366004612306565b610998565b34801561033257600080fd5b50610263610341366004612306565b610a12565b34801561035257600080fd5b50600b5460ff166101c1565b34801561036a57600080fd5b506103d2610379366004612306565b600d60205260009081526040902080546001820154600290920154909160ff8082169261010083048216926201000081048316926301000000820481169264010000000083048216926501000000000090049091169088565b6040805198895260ff97881660208a01529587169588019590955292851660608701529084166080860152831660a085015290911660c083015260e0820152610100016101cd565b34801561042657600080fd5b50610218610435366004612306565b610ab3565b34801561044657600080fd5b5061026361045536600461210c565b610b2a565b34801561046657600080fd5b50610250610bb1565b34801561047b57600080fd5b50610250610beb565b34801561049057600080fd5b50600b5461010090046001600160a01b0316610218565b610263610c23565b3480156104bb57600080fd5b506101eb610d34565b3480156104d057600080fd5b506102506104df36600461220c565b610d43565b3480156104f057600080fd5b506102506104ff366004612193565b610d4e565b34801561051057600080fd5b506101eb61051f366004612306565b610d86565b34801561053057600080fd5b5061025061053f366004612246565b610d91565b34801561055057600080fd5b506101c161055f366004612126565b6001600160a01b03918216600090815260056020908152604080832093909416825291909152205460ff1690565b34801561059957600080fd5b506102506105a836600461210c565b610df0565b60006105b882610e8e565b92915050565b6060600080546105cd906126e3565b80601f01602080910402602001604051908101604052809291908181526020018280546105f9906126e3565b80156106465780601f1061061b57610100808354040283529160200191610646565b820191906000526020600020905b81548152906001019060200180831161062957829003601f168201915b5050505050905090565b600061065b82610eb3565b6106c15760405162461bcd60e51b815260206004820152602c60248201527f4552433732313a20617070726f76656420717565727920666f72206e6f6e657860448201526b34b9ba32b73a103a37b5b2b760a11b60648201526084015b60405180910390fd5b506000908152600460205260409020546001600160a01b031690565b60006106e882610ab3565b9050806001600160a01b0316836001600160a01b031614156107565760405162461bcd60e51b815260206004820152602160248201527f4552433732313a20617070726f76616c20746f2063757272656e74206f776e656044820152603960f91b60648201526084016106b8565b336001600160a01b03821614806107725750610772813361055f565b6107e45760405162461bcd60e51b815260206004820152603860248201527f4552433732313a20617070726f76652063616c6c6572206973206e6f74206f7760448201527f6e6572206e6f7220617070726f76656420666f7220616c6c000000000000000060648201526084016106b8565b6107ee8383610ed0565b505050565b336001600160a01b037f0000000000000000000000000000000000000000000000000000000000000000161461086d5760405163073e64fd60e21b81523360048201526001600160a01b037f00000000000000000000000000000000000000000000000000000000000000001660248201526044016106b8565b6108778282610f3e565b5050565b610886335b82611046565b6108a25760405162461bcd60e51b81526004016106b8906125f2565b6107ee838383611130565b60006108b883610b2a565b821061091a5760405162461bcd60e51b815260206004820152602b60248201527f455243373231456e756d657261626c653a206f776e657220696e646578206f7560448201526a74206f6620626f756e647360a81b60648201526084016106b8565b506001600160a01b03919091166000908152600660209081526040808320938352929052205490565b600b546001600160a01b036101009091041633146109735760405162461bcd60e51b81526004016106b8906125bd565b61097b6112d7565b565b6107ee83838360405180602001604052806000815250610d4e565b6109a133610880565b610a065760405162461bcd60e51b815260206004820152603060248201527f4552433732314275726e61626c653a2063616c6c6572206973206e6f74206f7760448201526f1b995c881b9bdc88185c1c1c9bdd995960821b60648201526084016106b8565b610a0f8161136a565b50565b6000610a1d60085490565b8210610a805760405162461bcd60e51b815260206004820152602c60248201527f455243373231456e756d657261626c653a20676c6f62616c20696e646578206f60448201526b7574206f6620626f756e647360a01b60648201526084016106b8565b60088281548110610aa157634e487b7160e01b600052603260045260246000fd5b90600052602060002001549050919050565b6000818152600260205260408120546001600160a01b0316806105b85760405162461bcd60e51b815260206004820152602960248201527f4552433732313a206f776e657220717565727920666f72206e6f6e657869737460448201526832b73a103a37b5b2b760b91b60648201526084016106b8565b60006001600160a01b038216610b955760405162461bcd60e51b815260206004820152602a60248201527f4552433732313a2062616c616e636520717565727920666f7220746865207a65604482015269726f206164647265737360b01b60648201526084016106b8565b506001600160a01b031660009081526003602052604090205490565b600b546001600160a01b03610100909104163314610be15760405162461bcd60e51b81526004016106b8906125bd565b61097b6000611373565b600b546001600160a01b03610100909104163314610c1b5760405162461bcd60e51b81526004016106b8906125bd565b61097b6113cd565b6000610c33600c80546001019055565b6000610c3e600c5490565b9050610c4a3382611448565b600f546013546010546014546040516305d3b1d360e41b81526004810193909352600160a01b90910467ffffffffffffffff166024830152640100000000810461ffff16604483015263ffffffff80821660648401526601000000000000909104166084820152620100009091046001600160a01b031690635d3b1d309060a401602060405180830381600087803b158015610ce557600080fd5b505af1158015610cf9573d6000803e3d6000fd5b505050506040513d601f19601f82011682018060405250810190610d1d919061231e565b60168190556000908152600d602052604090205590565b6060600180546105cd906126e3565b610877338383611462565b610d583383611046565b610d745760405162461bcd60e51b81526004016106b8906125f2565b610d8084848484611531565b50505050565b60606105b882611564565b600b546001600160a01b03610100909104163314610dc15760405162461bcd60e51b81526004016106b8906125bd565b6000610dcc600c5490565b9050610ddc600c80546001019055565b610de68382611448565b6107ee81836116d3565b600b546001600160a01b03610100909104163314610e205760405162461bcd60e51b81526004016106b8906125bd565b6001600160a01b038116610e855760405162461bcd60e51b815260206004820152602660248201527f4f776e61626c653a206e6577206f776e657220697320746865207a65726f206160448201526564647265737360d01b60648201526084016106b8565b610a0f81611373565b60006001600160e01b0319821663780e9d6360e01b14806105b857506105b88261175e565b6000908152600260205260409020546001600160a01b0316151590565b600081815260046020526040902080546001600160a01b0319166001600160a01b0384169081179091558190610f0582610ab3565b6001600160a01b03167f8c5be1e5ebec7d5bd14f71427d1e84f3dd0314c0f7b2291e5b200ac8c7c3b92560405160405180910390a45050565b6000828152600d602090815260408083208151610100808201845282548252600183015460ff808216968401969096529081048516938201939093526201000083048416606082015263010000008304841660808201526401000000008304841660a08201526501000000000090920490921660c082015260029091015460e0820152600f54835191929161ffff9091169084908390610fee57634e487b7160e01b600052603260045260246000fd5b60200260200101516110009190612739565b90506000600e61100f836117ae565b604051602001611020929190612461565b604051602081830303815290604052905061103f8360000151826116d3565b5050505050565b600061105182610eb3565b6110b25760405162461bcd60e51b815260206004820152602c60248201527f4552433732313a206f70657261746f7220717565727920666f72206e6f6e657860448201526b34b9ba32b73a103a37b5b2b760a11b60648201526084016106b8565b60006110bd83610ab3565b9050806001600160a01b0316846001600160a01b031614806110f85750836001600160a01b03166110ed84610650565b6001600160a01b0316145b8061112857506001600160a01b0380821660009081526005602090815260408083209388168352929052205460ff165b949350505050565b826001600160a01b031661114382610ab3565b6001600160a01b0316146111a75760405162461bcd60e51b815260206004820152602560248201527f4552433732313a207472616e736665722066726f6d20696e636f72726563742060448201526437bbb732b960d91b60648201526084016106b8565b6001600160a01b0382166112095760405162461bcd60e51b8152602060048201526024808201527f4552433732313a207472616e7366657220746f20746865207a65726f206164646044820152637265737360e01b60648201526084016106b8565b6112148383836118c8565b61121f600082610ed0565b6001600160a01b03831660009081526003602052604081208054600192906112489084906126a0565b90915550506001600160a01b0382166000908152600360205260408120805460019290611276908490612674565b909155505060008181526002602052604080822080546001600160a01b0319166001600160a01b0386811691821790925591518493918716917fddf252ad1be2c89b69c2b068fc378daa952ba7f163c4a11628f55a4df523b3ef91a4505050565b600b5460ff166113205760405162461bcd60e51b815260206004820152601460248201527314185d5cd8589b194e881b9bdd081c185d5cd95960621b60448201526064016106b8565b600b805460ff191690557f5db9ee0a495bf2e6ff9c91a7834c1ba4fdd244a5e8aa4e537bd38aeae4b073aa335b6040516001600160a01b03909116815260200160405180910390a1565b610a0f81611919565b600b80546001600160a01b03838116610100818102610100600160a81b031985161790945560405193909204169182907f8be0079c531659141344cd1fd0a4f28419497f9722a3daafe3b4186f6b6457e090600090a35050565b600b5460ff16156114135760405162461bcd60e51b815260206004820152601060248201526f14185d5cd8589b194e881c185d5cd95960821b60448201526064016106b8565b600b805460ff191660011790557f62e78cea01bee320cd4e420270b5ea74000d11b0c9f74754ebdbfc544b05a25861134d3390565b610877828260405180602001604052806000815250611959565b816001600160a01b0316836001600160a01b031614156114c45760405162461bcd60e51b815260206004820152601960248201527f4552433732313a20617070726f766520746f2063616c6c65720000000000000060448201526064016106b8565b6001600160a01b03838116600081815260056020908152604080832094871680845294825291829020805460ff191686151590811790915591519182527f17307eab39ab6107e8899845ad3d59bd9653f200f220920489ca2b5937696c31910160405180910390a3505050565b61153c848484611130565b6115488484848461198c565b610d805760405162461bcd60e51b81526004016106b89061256b565b606061156f82610eb3565b6115d55760405162461bcd60e51b815260206004820152603160248201527f45524337323155524953746f726167653a2055524920717565727920666f72206044820152703737b732bc34b9ba32b73a103a37b5b2b760791b60648201526084016106b8565b6000828152600a6020526040812080546115ee906126e3565b80601f016020809104026020016040519081016040528092919081815260200182805461161a906126e3565b80156116675780601f1061163c57610100808354040283529160200191611667565b820191906000526020600020905b81548152906001019060200180831161164a57829003601f168201915b50505050509050600061168560408051602081019091526000815290565b9050805160001415611698575092915050565b8151156116ca5780826040516020016116b2929190612432565b60405160208183030381529060405292505050919050565b61112884611a99565b6116dc82610eb3565b61173f5760405162461bcd60e51b815260206004820152602e60248201527f45524337323155524953746f726167653a2055524920736574206f66206e6f6e60448201526d32bc34b9ba32b73a103a37b5b2b760911b60648201526084016106b8565b6000828152600a6020908152604090912082516107ee92840190611fc9565b60006001600160e01b031982166380ac58cd60e01b148061178f57506001600160e01b03198216635b5e139f60e01b145b806105b857506301ffc9a760e01b6001600160e01b03198316146105b8565b6060816117d25750506040805180820190915260018152600360fc1b602082015290565b8160005b81156117fc57806117e68161271e565b91506117f59050600a8361268c565b91506117d6565b60008167ffffffffffffffff81111561182557634e487b7160e01b600052604160045260246000fd5b6040519080825280601f01601f19166020018201604052801561184f576020820181803683370190505b5090505b8415611128576118646001836126a0565b9150611871600a86612739565b61187c906030612674565b60f81b81838151811061189f57634e487b7160e01b600052603260045260246000fd5b60200101906001600160f81b031916908160001a9053506118c1600a8661268c565b9450611853565b600b5460ff161561190e5760405162461bcd60e51b815260206004820152601060248201526f14185d5cd8589b194e881c185d5cd95960821b60448201526064016106b8565b6107ee838383611b71565b61192281611c29565b6000818152600a60205260409020805461193b906126e3565b159050610a0f576000818152600a60205260408120610a0f9161204d565b6119638383611cd0565b611970600084848461198c565b6107ee5760405162461bcd60e51b81526004016106b89061256b565b60006001600160a01b0384163b15611a8e57604051630a85bd0160e11b81526001600160a01b0385169063150b7a02906119d090339089908890889060040161251b565b602060405180830381600087803b1580156119ea57600080fd5b505af1925050508015611a1a575060408051601f3d908101601f19168201909252611a17918101906122ea565b60015b611a74573d808015611a48576040519150601f19603f3d011682016040523d82523d6000602084013e611a4d565b606091505b508051611a6c5760405162461bcd60e51b81526004016106b89061256b565b805181602001fd5b6001600160e01b031916630a85bd0160e11b149050611128565b506001949350505050565b6060611aa482610eb3565b611b085760405162461bcd60e51b815260206004820152602f60248201527f4552433732314d657461646174613a2055524920717565727920666f72206e6f60448201526e3732bc34b9ba32b73a103a37b5b2b760891b60648201526084016106b8565b6000611b1f60408051602081019091526000815290565b90506000815111611b3f5760405180602001604052806000815250611b6a565b80611b49846117ae565b604051602001611b5a929190612432565b6040516020818303038152906040525b9392505050565b6001600160a01b038316611bcc57611bc781600880546000838152600960205260408120829055600182018355919091527ff3f7a9fe364faab93b216da50a3214154f22a0a2b415b23a84c8169e8b636ee30155565b611bef565b816001600160a01b0316836001600160a01b031614611bef57611bef8382611e0f565b6001600160a01b038216611c06576107ee81611eac565b826001600160a01b0316826001600160a01b0316146107ee576107ee8282611f85565b6000611c3482610ab3565b9050611c42816000846118c8565b611c4d600083610ed0565b6001600160a01b0381166000908152600360205260408120805460019290611c769084906126a0565b909155505060008281526002602052604080822080546001600160a01b0319169055518391906001600160a01b038416907fddf252ad1be2c89b69c2b068fc378daa952ba7f163c4a11628f55a4df523b3ef908390a45050565b6001600160a01b038216611d265760405162461bcd60e51b815260206004820181905260248201527f4552433732313a206d696e7420746f20746865207a65726f206164647265737360448201526064016106b8565b611d2f81610eb3565b15611d7c5760405162461bcd60e51b815260206004820152601c60248201527f4552433732313a20746f6b656e20616c7265616479206d696e7465640000000060448201526064016106b8565b611d88600083836118c8565b6001600160a01b0382166000908152600360205260408120805460019290611db1908490612674565b909155505060008181526002602052604080822080546001600160a01b0319166001600160a01b03861690811790915590518392907fddf252ad1be2c89b69c2b068fc378daa952ba7f163c4a11628f55a4df523b3ef908290a45050565b60006001611e1c84610b2a565b611e2691906126a0565b600083815260076020526040902054909150808214611e79576001600160a01b03841660009081526006602090815260408083208584528252808320548484528184208190558352600790915290208190555b5060009182526007602090815260408084208490556001600160a01b039094168352600681528383209183525290812055565b600854600090611ebe906001906126a0565b60008381526009602052604081205460088054939450909284908110611ef457634e487b7160e01b600052603260045260246000fd5b906000526020600020015490508060088381548110611f2357634e487b7160e01b600052603260045260246000fd5b6000918252602080832090910192909255828152600990915260408082208490558582528120556008805480611f6957634e487b7160e01b600052603160045260246000fd5b6001900381819060005260206000200160009055905550505050565b6000611f9083610b2a565b6001600160a01b039093166000908152600660209081526040808320868452825280832085905593825260079052919091209190915550565b828054611fd5906126e3565b90600052602060002090601f016020900481019282611ff7576000855561203d565b82601f1061201057805160ff191683800117855561203d565b8280016001018555821561203d579182015b8281111561203d578251825591602001919060010190612022565b50612049929150612083565b5090565b508054612059906126e3565b6000825580601f10612069575050565b601f016020900490600052602060002090810190610a0f91905b5b808211156120495760008155600101612084565b600067ffffffffffffffff8311156120b2576120b2612779565b6120c5601f8401601f1916602001612643565b90508281528383830111156120d957600080fd5b828260208301376000602084830101529392505050565b80356001600160a01b038116811461210757600080fd5b919050565b60006020828403121561211d578081fd5b611b6a826120f0565b60008060408385031215612138578081fd5b612141836120f0565b915061214f602084016120f0565b90509250929050565b60008060006060848603121561216c578081fd5b612175846120f0565b9250612183602085016120f0565b9150604084013590509250925092565b600080600080608085870312156121a8578081fd5b6121b1856120f0565b93506121bf602086016120f0565b925060408501359150606085013567ffffffffffffffff8111156121e1578182fd5b8501601f810187136121f1578182fd5b61220087823560208401612098565b91505092959194509250565b6000806040838503121561221e578182fd5b612227836120f0565b91506020830135801515811461223b578182fd5b809150509250929050565b60008060408385031215612258578182fd5b612261836120f0565b9150602083013567ffffffffffffffff81111561227c578182fd5b8301601f8101851361228c578182fd5b61229b85823560208401612098565b9150509250929050565b600080604083850312156122b7578182fd5b6122c0836120f0565b946020939093013593505050565b6000602082840312156122df578081fd5b8135611b6a8161278f565b6000602082840312156122fb578081fd5b8151611b6a8161278f565b600060208284031215612317578081fd5b5035919050565b60006020828403121561232f578081fd5b5051919050565b60008060408385031215612348578182fd5b8235915060208084013567ffffffffffffffff80821115612367578384fd5b818601915086601f83011261237a578384fd5b81358181111561238c5761238c612779565b8060051b915061239d848301612643565b8181528481019084860184860187018b10156123b7578788fd5b8795505b838610156123d95780358352600195909501949186019186016123bb565b508096505050505050509250929050565b600081518084526124028160208601602086016126b7565b601f01601f19169290920160200192915050565b600081516124288185602086016126b7565b9290920192915050565b600083516124448184602088016126b7565b8351908301906124588183602088016126b7565b01949350505050565b600080845482600182811c91508083168061247d57607f831692505b602080841082141561249d57634e487b7160e01b87526022600452602487fd5b8180156124b157600181146124c2576124ee565b60ff198616895284890196506124ee565b60008b815260209020885b868110156124e65781548b8201529085019083016124cd565b505084890196505b5050505050506125126125018286612416565b64173539b7b760d91b815260050190565b95945050505050565b6001600160a01b038581168252841660208201526040810183905260806060820181905260009061254e908301846123ea565b9695505050505050565b602081526000611b6a60208301846123ea565b60208082526032908201527f4552433732313a207472616e7366657220746f206e6f6e20455243373231526560408201527131b2b4bb32b91034b6b83632b6b2b73a32b960711b606082015260800190565b6020808252818101527f4f776e61626c653a2063616c6c6572206973206e6f7420746865206f776e6572604082015260600190565b60208082526031908201527f4552433732313a207472616e736665722063616c6c6572206973206e6f74206f6040820152701ddb995c881b9bdc88185c1c1c9bdd9959607a1b606082015260800190565b604051601f8201601f1916810167ffffffffffffffff8111828210171561266c5761266c612779565b604052919050565b600082198211156126875761268761274d565b500190565b60008261269b5761269b612763565b500490565b6000828210156126b2576126b261274d565b500390565b60005b838110156126d25781810151838201526020016126ba565b83811115610d805750506000910152565b600181811c908216806126f757607f821691505b6020821081141561271857634e487b7160e01b600052602260045260246000fd5b50919050565b60006000198214156127325761273261274d565b5060010190565b60008261274857612748612763565b500690565b634e487b7160e01b600052601160045260246000fd5b634e487b7160e01b600052601260045260246000fd5b634e487b7160e01b600052604160045260246000fd5b6001600160e01b031981168114610a0f57600080fdfea2646970667358221220193e02d435b1a570186c552d4a6fb9e6aacf5c8d6c375bec009db3d73189488664736f6c6343000804003368747470733a2f2f676174657761792e70696e6174612e636c6f75642f697066732f516d64516a7a737465646f6f6a6f446e3644786b39715336567573516656655934574471377357694c316279366a2f74797065",
  "devdoc": {
    "kind": "dev",
    "methods": {
      "approve(address,uint256)": {
        "details": "See {IERC721-approve}."
      },
      "balanceOf(address)": {
        "details": "See {IERC721-balanceOf}."
      },
      "burn(uint256)": {
        "details": "Burns `tokenId`. See {ERC721-_burn}. Requirements: - The caller must own `tokenId` or be an approved operator."
      },
      "getApproved(uint256)": {
        "details": "See {IERC721-getApproved}."
      },
      "isApprovedForAll(address,address)": {
        "details": "See {IERC721-isApprovedForAll}."
      },
      "name()": {
        "details": "See {IERC721Metadata-name}."
      },
      "owner()": {
        "details": "Returns the address of the current owner."
      },
      "ownerOf(uint256)": {
        "details": "See {IERC721-ownerOf}."
      },
      "paused()": {
        "details": "Returns true if the contract is paused, and false otherwise."
      },
      "renounceOwnership()": {
        "details": "Leaves the contract without owner. It will not be possible to call `onlyOwner` functions anymore. Can only be called by the current owner. NOTE: Renouncing ownership will leave the contract without an owner, thereby removing any functionality that is only available to the owner."
      },
      "safeTransferFrom(address,address,uint256)": {
        "details": "See {IERC721-safeTransferFrom}."
      },
      "safeTransferFrom(address,address,uint256,bytes)": {
        "details": "See {IERC721-safeTransferFrom}."
      },
      "setApprovalForAll(address,bool)": {
        "details": "See {IERC721-setApprovalForAll}."
      },
      "symbol()": {
        "details": "See {IERC721Metadata-symbol}."
      },
      "tokenByIndex(uint256)": {
        "details": "See {IERC721Enumerable-tokenByIndex}."
      },
      "tokenOfOwnerByIndex(address,uint256)": {
        "details": "See {IERC721Enumerable-tokenOfOwnerByIndex}."
      },
      "totalSupply()": {
        "details": "See {IERC721Enumerable-totalSupply}."
      },
      "transferFrom(address,address,uint256)": {
        "details": "See {IERC721-transferFrom}."
      },
      "transferOwnership(address)": {
        "details": "Transfers ownership of the contract to a new account (`newOwner`). Can only be called by the current owner."
      }
    },
    "version": 1
  },
  "userdoc": {
    "kind": "user",
    "methods": {},
    "version": 1
  },
  "storageLayout": {
    "storage": [
      {
        "astId": 812,
        "contract": "contracts/GachaponERC721.sol:GachaponERC721",
        "label": "_name",
        "offset": 0,
        "slot": "0",
        "type": "t_string_storage"
      },
      {
        "astId": 814,
        "contract": "contracts/GachaponERC721.sol:GachaponERC721",
        "label": "_symbol",
        "offset": 0,
        "slot": "1",
        "type": "t_string_storage"
      },
      {
        "astId": 818,
        "contract": "contracts/GachaponERC721.sol:GachaponERC721",
        "label": "_owners",
        "offset": 0,
        "slot": "2",
        "type": "t_mapping(t_uint256,t_address)"
      },
      {
        "astId": 822,
        "contract": "contracts/GachaponERC721.sol:GachaponERC721",
        "label": "_balances",
        "offset": 0,
        "slot": "3",
        "type": "t_mapping(t_address,t_uint256)"
      },
      {
        "astId": 826,
        "contract": "contracts/GachaponERC721.sol:GachaponERC721",
        "label": "_tokenApprovals",
        "offset": 0,
        "slot": "4",
        "type": "t_mapping(t_uint256,t_address)"
      },
      {
        "astId": 832,
        "contract": "contracts/GachaponERC721.sol:GachaponERC721",
        "label": "_operatorApprovals",
        "offset": 0,
        "slot": "5",
        "type": "t_mapping(t_address,t_mapping(t_address,t_bool))"
      },
      {
        "astId": 1831,
        "contract": "contracts/GachaponERC721.sol:GachaponERC721",
        "label": "_ownedTokens",
        "offset": 0,
        "slot": "6",
        "type": "t_mapping(t_address,t_mapping(t_uint256,t_uint256))"
      },
      {
        "astId": 1835,
        "contract": "contracts/GachaponERC721.sol:GachaponERC721",
        "label": "_ownedTokensIndex",
        "offset": 0,
        "slot": "7",
        "type": "t_mapping(t_uint256,t_uint256)"
      },
      {
        "astId": 1838,
        "contract": "contracts/GachaponERC721.sol:GachaponERC721",
        "label": "_allTokens",
        "offset": 0,
        "slot": "8",
        "type": "t_array(t_uint256)dyn_storage"
      },
      {
        "astId": 1842,
        "contract": "contracts/GachaponERC721.sol:GachaponERC721",
        "label": "_allTokensIndex",
        "offset": 0,
        "slot": "9",
        "type": "t_mapping(t_uint256,t_uint256)"
      },
      {
        "astId": 2167,
        "contract": "contracts/GachaponERC721.sol:GachaponERC721",
        "label": "_tokenURIs",
        "offset": 0,
        "slot": "10",
        "type": "t_mapping(t_uint256,t_string_storage)"
      },
      {
        "astId": 410,
        "contract": "contracts/GachaponERC721.sol:GachaponERC721",
        "label": "_paused",
        "offset": 0,
        "slot": "11",
        "type": "t_bool"
      },
      {
        "astId": 295,
        "contract": "contracts/GachaponERC721.sol:GachaponERC721",
        "label": "_owner",
        "offset": 1,
        "slot": "11",
        "type": "t_address"
      },
      {
        "astId": 3009,
        "contract": "contracts/GachaponERC721.sol:GachaponERC721",
        "label": "_tokenIdCounter",
        "offset": 0,
        "slot": "12",
        "type": "t_struct(Counter)2663_storage"
      },
      {
        "astId": 3031,
        "contract": "contracts/GachaponERC721.sol:GachaponERC721",
        "label": "animalsInfo",
        "offset": 0,
        "slot": "13",
        "type": "t_mapping(t_uint256,t_struct(AnimalInfo)3026_storage)"
      },
      {
        "astId": 3033,
        "contract": "contracts/GachaponERC721.sol:GachaponERC721",
        "label": "initialURI",
        "offset": 0,
        "slot": "14",
        "type": "t_string_storage"
      },
      {
        "astId": 3035,
        "contract": "contracts/GachaponERC721.sol:GachaponERC721",
        "label": "numberOfAnimalTypes",
        "offset": 0,
        "slot": "15",
        "type": "t_uint16"
      },
      {
        "astId": 3038,
        "contract": "contracts/GachaponERC721.sol:GachaponERC721",
        "label": "COORDINATOR",
        "offset": 2,
        "slot": "15",
        "type": "t_contract(VRFCoordinatorV2Interface)287"
      },
      {
        "astId": 3041,
        "contract": "contracts/GachaponERC721.sol:GachaponERC721",
        "label": "LINKTOKEN",
        "offset": 0,
        "slot": "16",
        "type": "t_contract(LinkTokenInterface)198"
      },
      {
        "astId": 3043,
        "contract": "contracts/GachaponERC721.sol:GachaponERC721",
        "label": "subscriptionId",
        "offset": 20,
        "slot": "16",
        "type": "t_uint64"
      },
      {
        "astId": 3046,
        "contract": "contracts/GachaponERC721.sol:GachaponERC721",
        "label": "vrfCoordinator",
        "offset": 0,
        "slot": "17",
        "type": "t_address"
      },
      {
        "astId": 3049,
        "contract": "contracts/GachaponERC721.sol:GachaponERC721",
        "label": "link",
        "offset": 0,
        "slot": "18",
        "type": "t_address"
      },
      {
        "astId": 3052,
        "contract": "contracts/GachaponERC721.sol:GachaponERC721",
        "label": "keyHash",
        "offset": 0,
        "slot": "19",
        "type": "t_bytes32"
      },
      {
        "astId": 3055,
        "contract": "contracts/GachaponERC721.sol:GachaponERC721",
        "label": "callbackGasLimit",
        "offset": 0,
        "slot": "20",
        "type": "t_uint32"
      },
      {
        "astId": 3058,
        "contract": "contracts/GachaponERC721.sol:GachaponERC721",
        "label": "requestConfirmations",
        "offset": 4,
        "slot": "20",
        "type": "t_uint16"
      },
      {
        "astId": 3061,
        "contract": "contracts/GachaponERC721.sol:GachaponERC721",
        "label": "numWords",
        "offset": 6,
        "slot": "20",
        "type": "t_uint32"
      },
      {
        "astId": 3064,
        "contract": "contracts/GachaponERC721.sol:GachaponERC721",
        "label": "randomWord",
        "offset": 0,
        "slot": "21",
        "type": "t_array(t_uint256)dyn_storage"
      },
      {
        "astId": 3066,
        "contract": "contracts/GachaponERC721.sol:GachaponERC721",
        "label": "requestId",
        "offset": 0,
        "slot": "22",
        "type": "t_uint256"
      }
    ],
    "types": {
      "t_address": {
        "encoding": "inplace",
        "label": "address",
        "numberOfBytes": "20"
      },
      "t_array(t_uint256)dyn_storage": {
        "base": "t_uint256",
        "encoding": "dynamic_array",
        "label": "uint256[]",
        "numberOfBytes": "32"
      },
      "t_bool": {
        "encoding": "inplace",
        "label": "bool",
        "numberOfBytes": "1"
      },
      "t_bytes32": {
        "encoding": "inplace",
        "label": "bytes32",
        "numberOfBytes": "32"
      },
      "t_contract(LinkTokenInterface)198": {
        "encoding": "inplace",
        "label": "contract LinkTokenInterface",
        "numberOfBytes": "20"
      },
      "t_contract(VRFCoordinatorV2Interface)287": {
        "encoding": "inplace",
        "label": "contract VRFCoordinatorV2Interface",
        "numberOfBytes": "20"
      },
      "t_mapping(t_address,t_bool)": {
        "encoding": "mapping",
        "key": "t_address",
        "label": "mapping(address => bool)",
        "numberOfBytes": "32",
        "value": "t_bool"
      },
      "t_mapping(t_address,t_mapping(t_address,t_bool))": {
        "encoding": "mapping",
        "key": "t_address",
        "label": "mapping(address => mapping(address => bool))",
        "numberOfBytes": "32",
        "value": "t_mapping(t_address,t_bool)"
      },
      "t_mapping(t_address,t_mapping(t_uint256,t_uint256))": {
        "encoding": "mapping",
        "key": "t_address",
        "label": "mapping(address => mapping(uint256 => uint256))",
        "numberOfBytes": "32",
        "value": "t_mapping(t_uint256,t_uint256)"
      },
      "t_mapping(t_address,t_uint256)": {
        "encoding": "mapping",
        "key": "t_address",
        "label": "mapping(address => uint256)",
        "numberOfBytes": "32",
        "value": "t_uint256"
      },
      "t_mapping(t_uint256,t_address)": {
        "encoding": "mapping",
        "key": "t_uint256",
        "label": "mapping(uint256 => address)",
        "numberOfBytes": "32",
        "value": "t_address"
      },
      "t_mapping(t_uint256,t_string_storage)": {
        "encoding": "mapping",
        "key": "t_uint256",
        "label": "mapping(uint256 => string)",
        "numberOfBytes": "32",
        "value": "t_string_storage"
      },
      "t_mapping(t_uint256,t_struct(AnimalInfo)3026_storage)": {
        "encoding": "mapping",
        "key": "t_uint256",
        "label": "mapping(uint256 => struct GachaponERC721.AnimalInfo)",
        "numberOfBytes": "32",
        "value": "t_struct(AnimalInfo)3026_storage"
      },
      "t_mapping(t_uint256,t_uint256)": {
        "encoding": "mapping",
        "key": "t_uint256",
        "label": "mapping(uint256 => uint256)",
        "numberOfBytes": "32",
        "value": "t_uint256"
      },
      "t_string_storage": {
        "encoding": "bytes",
        "label": "string",
        "numberOfBytes": "32"
      },
      "t_struct(AnimalInfo)3026_storage": {
        "encoding": "inplace",
        "label": "struct GachaponERC721.AnimalInfo",
        "members": [
          {
            "astId": 3011,
            "contract": "contracts/GachaponERC721.sol:GachaponERC721",
            "label": "tokenId",
            "offset": 0,
            "slot": "0",
            "type": "t_uint256"
          },
          {
            "astId": 3013,
            "contract": "contracts/GachaponERC721.sol:GachaponERC721",
            "label": "animalType",
            "offset": 0,
            "slot": "1",
            "type": "t_uint8"
          },
          {
            "astId": 3015,
            "contract": "contracts/GachaponERC721.sol:GachaponERC721",
            "label": "animalAgeStage",
            "offset": 1,
            "slot": "1",
            "type": "t_uint8"
          },
          {
            "astId": 3017,
            "contract": "contracts/GachaponERC721.sol:GachaponERC721",
            "label": "gender",
            "offset": 2,
            "slot": "1",
            "type": "t_uint8"
          },
          {
            "astId": 3019,
            "contract": "contracts/GachaponERC721.sol:GachaponERC721",
            "label": "attack",
            "offset": 3,
            "slot": "1",
            "type": "t_uint8"
          },
          {
            "astId": 3021,
            "contract": "contracts/GachaponERC721.sol:GachaponERC721",
            "label": "defense",
            "offset": 4,
            "slot": "1",
            "type": "t_uint8"
          },
          {
            "astId": 3023,
            "contract": "contracts/GachaponERC721.sol:GachaponERC721",
            "label": "vitality",
            "offset": 5,
            "slot": "1",
            "type": "t_uint8"
          },
          {
            "astId": 3025,
            "contract": "contracts/GachaponERC721.sol:GachaponERC721",
            "label": "experience",
            "offset": 0,
            "slot": "2",
            "type": "t_uint256"
          }
        ],
        "numberOfBytes": "96"
      },
      "t_struct(Counter)2663_storage": {
        "encoding": "inplace",
        "label": "struct Counters.Counter",
        "members": [
          {
            "astId": 2662,
            "contract": "contracts/GachaponERC721.sol:GachaponERC721",
            "label": "_value",
            "offset": 0,
            "slot": "0",
            "type": "t_uint256"
          }
        ],
        "numberOfBytes": "32"
      },
      "t_uint16": {
        "encoding": "inplace",
        "label": "uint16",
        "numberOfBytes": "2"
      },
      "t_uint256": {
        "encoding": "inplace",
        "label": "uint256",
        "numberOfBytes": "32"
      },
      "t_uint32": {
        "encoding": "inplace",
        "label": "uint32",
        "numberOfBytes": "4"
      },
      "t_uint64": {
        "encoding": "inplace",
        "label": "uint64",
        "numberOfBytes": "8"
      },
      "t_uint8": {
        "encoding": "inplace",
        "label": "uint8",
        "numberOfBytes": "1"
      }
    }
  }
}